{
  "contractName": "Game",
  "abi": [
    {
      "constant": true,
      "inputs": [],
      "name": "quiz_master",
      "outputs": [
        {
          "name": "",
          "type": "address"
        }
      ],
      "payable": false,
      "stateMutability": "view",
      "type": "function"
    },
    {
      "constant": true,
      "inputs": [],
      "name": "pfee",
      "outputs": [
        {
          "name": "",
          "type": "uint256"
        }
      ],
      "payable": false,
      "stateMutability": "view",
      "type": "function"
    },
    {
      "inputs": [
        {
          "name": "num_players",
          "type": "uint256"
        },
        {
          "name": "regpfee",
          "type": "uint256"
        }
      ],
      "payable": false,
      "stateMutability": "nonpayable",
      "type": "constructor"
    },
    {
      "constant": false,
      "inputs": [
        {
          "name": "ans_arr",
          "type": "uint256[4]"
        }
      ],
      "name": "registerplayers",
      "outputs": [],
      "payable": true,
      "stateMutability": "payable",
      "type": "function"
    },
    {
      "constant": true,
      "inputs": [],
      "name": "getplayers",
      "outputs": [
        {
          "name": "",
          "type": "address[]"
        }
      ],
      "payable": false,
      "stateMutability": "view",
      "type": "function"
    },
    {
      "constant": false,
      "inputs": [
        {
          "name": "ans",
          "type": "uint256[4]"
        }
      ],
      "name": "pickWinner",
      "outputs": [
        {
          "name": "",
          "type": "address"
        }
      ],
      "payable": false,
      "stateMutability": "nonpayable",
      "type": "function"
    },
    {
      "constant": false,
      "inputs": [
        {
          "name": "amount",
          "type": "uint256"
        }
      ],
      "name": "host_reward",
      "outputs": [],
      "payable": true,
      "stateMutability": "payable",
      "type": "function"
    }
  ],
  "bytecode": "0x608060405234801561001057600080fd5b50604051604080610e6d8339810180604052810190808051906020019092919080519060200190929190505050336000806101000a81548173ffffffffffffffffffffffffffffffffffffffff021916908373ffffffffffffffffffffffffffffffffffffffff160217905550818102600381905550806002819055505050610dcf8061009e6000396000f300608060405260043610610078576000357c0100000000000000000000000000000000000000000000000000000000900463ffffffff168063597848151461007d5780635d7a2c58146100d45780636c31ab87146101195780637c89f115146101ab5780639bb8c28e146101d6578063ecb3db52146101f6575b600080fd5b34801561008957600080fd5b50610092610262565b604051808273ffffffffffffffffffffffffffffffffffffffff1673ffffffffffffffffffffffffffffffffffffffff16815260200191505060405180910390f35b6101176004803603810190808060800190600480602002604051908101604052809291908260046020028082843782019150505050509192919290505050610287565b005b34801561012557600080fd5b5061016960048036038101908080608001906004806020026040519081016040528092919082600460200280828437820191505050505091929192905050506103ce565b604051808273ffffffffffffffffffffffffffffffffffffffff1673ffffffffffffffffffffffffffffffffffffffff16815260200191505060405180910390f35b3480156101b757600080fd5b506101c0610bb5565b6040518082815260200191505060405180910390f35b6101f460048036038101908080359060200190929190505050610bbb565b005b34801561020257600080fd5b5061020b610c05565b6040518080602001828103825283818151815260200191508051906020019060200280838360005b8381101561024e578082015181840152602081019050610233565b505050509050019250505060405180910390f35b6000809054906101000a900473ffffffffffffffffffffffffffffffffffffffff1681565b60025434111515610300576040517f08c379a000000000000000000000000000000000000000000000000000000000815260040180806020018281038252601c8152602001807f4e6f7420456e6f7567682050617274696369706174696f6e204665650000000081525060200191505060405180910390fd5b60016060604051908101604052803373ffffffffffffffffffffffffffffffffffffffff168152602001838152602001438152509080600181540180825580915050906001820390600052602060002090600602016000909192909190915060008201518160000160006101000a81548173ffffffffffffffffffffffffffffffffffffffff021916908373ffffffffffffffffffffffffffffffffffffffff1602179055506020820151816001019060046103bd929190610d01565b506040820151816005015550505050565b6000806000806000806000806000809054906101000a900473ffffffffffffffffffffffffffffffffffffffff1673ffffffffffffffffffffffffffffffffffffffff163373ffffffffffffffffffffffffffffffffffffffff161415156104c4576040517f08c379a00000000000000000000000000000000000000000000000000000000081526004018080602001828103825260358152602001807f4f6e6c79207175697a206d617374657220697320616c6c6f77656420746f207081526020017f6572666f726d2074686973206f7065726174696f6e000000000000000000000081525060400191505060405180910390fd5b8860006004811015156104d357fe5b602002015187600001819055508860016004811015156104ef57fe5b6020020151876001018190555088600260048110151561050b57fe5b6020020151876002018190555088600360048110151561052757fe5b60200201518760030181905550600094505b600180549050851015610ba657866000015460018681548110151561055a57fe5b9060005260206000209060060201600101600060048110151561057957fe5b015414156106655785600060048110151561059057fe5b016001868154811015156105a057fe5b9060005260206000209060060201908060018154018082558091505090600182039060005260206000209060060201600090919290919091506000820160009054906101000a900473ffffffffffffffffffffffffffffffffffffffff168160000160006101000a81548173ffffffffffffffffffffffffffffffffffffffff021916908373ffffffffffffffffffffffffffffffffffffffff1602179055506001820181600101906004610656929190610d41565b50600582015481600501555050505b866001015460018681548110151561067957fe5b9060005260206000209060060201600101600160048110151561069857fe5b01541415610784578560016004811015156106af57fe5b016001868154811015156106bf57fe5b9060005260206000209060060201908060018154018082558091505090600182039060005260206000209060060201600090919290919091506000820160009054906101000a900473ffffffffffffffffffffffffffffffffffffffff168160000160006101000a81548173ffffffffffffffffffffffffffffffffffffffff021916908373ffffffffffffffffffffffffffffffffffffffff1602179055506001820181600101906004610775929190610d41565b50600582015481600501555050505b866002015460018681548110151561079857fe5b906000526020600020906006020160010160026004811015156107b757fe5b015414156108a3578560026004811015156107ce57fe5b016001868154811015156107de57fe5b9060005260206000209060060201908060018154018082558091505090600182039060005260206000209060060201600090919290919091506000820160009054906101000a900473ffffffffffffffffffffffffffffffffffffffff168160000160006101000a81548173ffffffffffffffffffffffffffffffffffffffff021916908373ffffffffffffffffffffffffffffffffffffffff1602179055506001820181600101906004610894929190610d41565b50600582015481600501555050505b86600301546001868154811015156108b757fe5b906000526020600020906006020160010160036004811015156108d657fe5b015414156109c2578560036004811015156108ed57fe5b016001868154811015156108fd57fe5b9060005260206000209060060201908060018154018082558091505090600182039060005260206000209060060201600090919290919091506000820160009054906101000a900473ffffffffffffffffffffffffffffffffffffffff168160000160006101000a81548173ffffffffffffffffffffffffffffffffffffffff021916908373ffffffffffffffffffffffffffffffffffffffff16021790555060018201816001019060046109b3929190610d41565b50600582015481600501555050505b600093505b6004841015610b995785846004811015156109de57fe5b0160008154811015156109ed57fe5b906000526020600020906006020160000160009054906101000a900473ffffffffffffffffffffffffffffffffffffffff1692508584600481101515610a2f57fe5b016000815481101515610a3e57fe5b9060005260206000209060060201600501549150600090505b8584600481101515610a6557fe5b0180549050811015610b34578584600481101515610a7f57fe5b0181815481101515610a8d57fe5b906000526020600020906006020160050154821015610b27578584600481101515610ab457fe5b0181815481101515610ac257fe5b90600052602060002090600602016005015491508584600481101515610ae457fe5b0181815481101515610af257fe5b906000526020600020906006020160000160009054906101000a900473ffffffffffffffffffffffffffffffffffffffff1692505b8080600101915050610a57565b8273ffffffffffffffffffffffffffffffffffffffff166108fc6003600260035402811515610b5f57fe5b049081150290604051600060405180830381858888f19350505050158015610b8b573d6000803e3d6000fd5b5083806001019450506109c7565b8480600101955050610539565b82975050505050505050919050565b60025481565b3373ffffffffffffffffffffffffffffffffffffffff166108fc829081150290604051600060405180830381858888f19350505050158015610c01573d6000803e3d6000fd5b5050565b606080600080600180549050604051908082528060200260200182016040528015610c3f5781602001602082028038833980820191505090505b50925060009150600090505b600180549050811015610cf857600181815481101515610c6757fe5b906000526020600020906006020160000160009054906101000a900473ffffffffffffffffffffffffffffffffffffffff168383815181101515610ca757fe5b9060200190602002019073ffffffffffffffffffffffffffffffffffffffff16908173ffffffffffffffffffffffffffffffffffffffff168152505081806001019250508080600101915050610c4b565b82935050505090565b8260048101928215610d30579160200282015b82811115610d2f578251825591602001919060010190610d14565b5b509050610d3d9190610d7e565b5090565b8260048101928215610d6d579182015b82811115610d6c578254825591600101919060010190610d51565b5b509050610d7a9190610d7e565b5090565b610da091905b80821115610d9c576000816000905550600101610d84565b5090565b905600a165627a7a72305820ba7d506511476968bf608a3e8f517da16f06225a83d76d3083b020ca783ee8870029",
  "source": "pragma solidity ^0.4.24;\n\ncontract Game \n{\n    \n    struct Question_Paper\n    {\n        uint256 correct_ans_1;\n        uint256 correct_ans_2;\n        uint256 correct_ans_3;\n        uint256 correct_ans_4;\n    }\n    \n    struct Player\n    {\n        address account; // stores his adress\n        uint256[4] ans_arr; // stores his 4 answers\n        uint256 time_stamp ; // stores the block number\n    }\n    \n    address public quiz_master; // adress of the quizmaster i.e the host of the game\n    Player[] private players; //will store a list of all the players registered for the game\n    uint public pfee; // stores the participation fees of each player\n    uint tfee; // total fees of the game\n    \n    function registerplayers(uint256[4] ans_arr) public payable // function to register the players\n    {\n        require(msg.value > pfee,\"Not Enough Participation Fee\"); // the value must be greater than the pfee\n        players.push(Player(msg.sender, ans_arr, block.number)); // push that player and his 4 choices in the player array\n\n    }\n    \n    \n    // function regpfee(uint256 _pfee) public\n    // {\n    //     pfee = _pfee;\n    // }\n    \n    function getplayers() external view returns(address[]) //displays all registered players so far\n    {\n        address[] memory ids = new address[](players.length);\n        uint counter = 0;\n        for(uint i = 0; i < players.length; i++)\n        {\n            ids[counter] = players[i].account;\n            counter++;\n        }\n        return ids;\n    }\n    \n    modifier restricted()\n    {\n        // Ensure the participant awarding the ether is the manager\n        require(msg.sender == quiz_master,\"Only quiz master is allowed to perform this operation\");\n        _;\n    }\n    \n    // function random() private view returns (uint)\n    // {\n    //     return uint(keccak256(block.difficulty, now, players.length));\n    // }\n    \n    function pickWinner(uint256[4]ans) public restricted returns(address)\n    {\n        \n        Question_Paper storage question; // Question paper declared\n        question.correct_ans_1 = ans[0]; // correct ans decided by quiz_master as this is a restricted function\n        question.correct_ans_2 = ans[1];\n        question.correct_ans_3 = ans[2];\n        question.correct_ans_4 = ans[3];\n        Player[][4] q_correct_ans; // stores the ans for all the players in all the questions\n        for(uint i = 0;i < players.length; i++)\n        {\n            if(players[i].ans_arr[0] == question.correct_ans_1)\n            {\n                q_correct_ans[0].push(players[i]); // getting possible winnners of q1 based on ans\n            }\n            if(players[i].ans_arr[1] == question.correct_ans_2)\n            {\n                q_correct_ans[1].push(players[i]); // getting possible winners of q2 based on ans\n            }\n            if(players[i].ans_arr[2] == question.correct_ans_3)\n            {\n                q_correct_ans[2].push(players[i]); // getting possible winners of q3 based on ans\n            }\n            if(players[i].ans_arr[3] == question.correct_ans_4)\n            {\n                q_correct_ans[3].push(players[i]); // getting possible winners of q4 based on ans\n            }\n            \n            for(uint j = 0; j < 4; j++) // For each question\n            {\n                address round_winner;\n                uint256 round_stamp;\n                round_winner = q_correct_ans[j][0].account; // stores that question's winner's address\n                round_stamp = q_correct_ans[j][0].time_stamp; // stores that question's winning time stamp\n                for(uint k = 0; k < q_correct_ans[j].length; k++) // For Each Player\n                {\n                    if(round_stamp < q_correct_ans[j][k].time_stamp) // If time stamp is greater then replace winner\n                    {\n                        round_stamp = q_correct_ans[j][k].time_stamp;\n                        round_winner = q_correct_ans[j][k].account;\n                    }\n                }\n                \n                round_winner.transfer((tfee*2)/3); // Need to send this amount to the account, But some error in Remix Right Now\n                \n            }\n        }\n\n        return round_winner;\n    }\n    \n    function host_reward(uint256 amount) public payable {\n        msg.sender.transfer(amount);\n    }\n    // function calcul(uint a, uint b, uint precision) view returns ( uint) { // just a multiplier with specified precision\n\n    //  return a*(10**precision)/b;\n    // }\n    \n    constructor (uint num_players, uint regpfee) public { //quiz master will dictate # of players and pfee\n        quiz_master = msg.sender;// store the address of the quiz_master\n        tfee = regpfee * num_players;\n        pfee = regpfee;\n    }\n    \n}\n\n",
  "sourcePath": "/home/fnatic/quiz/contracts/quiz.sol",
  "compiler": {
    "name": "solc",
    "version": "0.4.24+commit.e67f0147.Emscripten.clang"
  },
  "schemaVersion": "2.0.1",
  "updatedAt": "2018-11-01T22:26:05.969Z"
}